{
    "_format": "hh-sol-artifact-1",
    "contractName": "Marketplace",
    "sourceName": "contracts/Marketplace.sol",
    "abi": [
        {
            "inputs": [
                {
                    "internalType": "address",
                    "name": "_nftContractAddress",
                    "type": "address"
                },
                {
                    "internalType": "address payable",
                    "name": "_feeReceiver",
                    "type": "address"
                }
            ],
            "stateMutability": "nonpayable",
            "type": "constructor"
        },
        {
            "anonymous": false,
            "inputs": [
                {
                    "indexed": true,
                    "internalType": "uint256",
                    "name": "tokenId",
                    "type": "uint256"
                },
                {
                    "indexed": true,
                    "internalType": "address",
                    "name": "buyer",
                    "type": "address"
                },
                {
                    "indexed": false,
                    "internalType": "uint256",
                    "name": "pricePaid",
                    "type": "uint256"
                }
            ],
            "name": "AccessSold",
            "type": "event"
        },
        {
            "anonymous": false,
            "inputs": [
                {
                    "indexed": true,
                    "internalType": "uint256",
                    "name": "tokenId",
                    "type": "uint256"
                },
                {
                    "indexed": true,
                    "internalType": "address",
                    "name": "seller",
                    "type": "address"
                },
                {
                    "indexed": false,
                    "internalType": "uint256",
                    "name": "price",
                    "type": "uint256"
                },
                {
                    "indexed": false,
                    "internalType": "string",
                    "name": "tokenURI",
                    "type": "string"
                }
            ],
            "name": "DatasetListed",
            "type": "event"
        },
        {
            "anonymous": false,
            "inputs": [
                {
                    "indexed": true,
                    "internalType": "address",
                    "name": "previousOwner",
                    "type": "address"
                },
                {
                    "indexed": true,
                    "internalType": "address",
                    "name": "newOwner",
                    "type": "address"
                }
            ],
            "name": "OwnershipTransferred",
            "type": "event"
        },
        {
            "inputs": [
                {
                    "internalType": "uint256",
                    "name": "tokenId",
                    "type": "uint256"
                }
            ],
            "name": "buyAccess",
            "outputs": [],
            "stateMutability": "payable",
            "type": "function"
        },
        {
            "inputs": [],
            "name": "datasetNFT",
            "outputs": [
                {
                    "internalType": "contract DatasetNFT",
                    "name": "",
                    "type": "address"
                }
            ],
            "stateMutability": "view",
            "type": "function"
        },
        {
            "inputs": [
                {
                    "internalType": "uint256",
                    "name": "",
                    "type": "uint256"
                }
            ],
            "name": "datasets",
            "outputs": [
                {
                    "internalType": "address payable",
                    "name": "seller",
                    "type": "address"
                },
                {
                    "internalType": "uint256",
                    "name": "price",
                    "type": "uint256"
                },
                {
                    "internalType": "string",
                    "name": "tokenURI",
                    "type": "string"
                },
                {
                    "internalType": "bool",
                    "name": "isListed",
                    "type": "bool"
                }
            ],
            "stateMutability": "view",
            "type": "function"
        },
        {
            "inputs": [],
            "name": "feeReceiver",
            "outputs": [
                {
                    "internalType": "address payable",
                    "name": "",
                    "type": "address"
                }
            ],
            "stateMutability": "view",
            "type": "function"
        },
        {
            "inputs": [
                {
                    "internalType": "address payable",
                    "name": "_seller",
                    "type": "address"
                },
                {
                    "internalType": "uint256",
                    "name": "_price",
                    "type": "uint256"
                },
                {
                    "internalType": "string",
                    "name": "_tokenURI",
                    "type": "string"
                }
            ],
            "name": "listDataset",
            "outputs": [
                {
                    "internalType": "uint256",
                    "name": "",
                    "type": "uint256"
                }
            ],
            "stateMutability": "nonpayable",
            "type": "function"
        },
        {
            "inputs": [],
            "name": "nextTokenId",
            "outputs": [
                {
                    "internalType": "uint256",
                    "name": "",
                    "type": "uint256"
                }
            ],
            "stateMutability": "view",
            "type": "function"
        },
        {
            "inputs": [],
            "name": "owner",
            "outputs": [
                {
                    "internalType": "address",
                    "name": "",
                    "type": "address"
                }
            ],
            "stateMutability": "view",
            "type": "function"
        },
        {
            "inputs": [],
            "name": "platformFeeBps",
            "outputs": [
                {
                    "internalType": "uint256",
                    "name": "",
                    "type": "uint256"
                }
            ],
            "stateMutability": "view",
            "type": "function"
        },
        {
            "inputs": [],
            "name": "renounceOwnership",
            "outputs": [],
            "stateMutability": "nonpayable",
            "type": "function"
        },
        {
            "inputs": [
                {
                    "internalType": "uint256",
                    "name": "_newFeeBps",
                    "type": "uint256"
                }
            ],
            "name": "setPlatformFee",
            "outputs": [],
            "stateMutability": "nonpayable",
            "type": "function"
        },
        {
            "inputs": [
                {
                    "internalType": "address",
                    "name": "newOwner",
                    "type": "address"
                }
            ],
            "name": "transferOwnership",
            "outputs": [],
            "stateMutability": "nonpayable",
            "type": "function"
        }
    ],
    "bytecode": "0x60a06040526103e8600355600160045534801561001b57600080fd5b50604051610e92380380610e9283398101604081905261003a916100da565b600160005561004833610070565b6001600160a01b03918216608052600280546001600160a01b03191691909216179055610114565b600180546001600160a01b038381166001600160a01b0319831681179093556040519116919082907f8be0079c531659141344cd1fd0a4f28419497f9722a3daafe3b4186f6b6457e090600090a35050565b6001600160a01b03811681146100d757600080fd5b50565b600080604083850312156100ed57600080fd5b82516100f8816100c2565b6020840151909250610109816100c2565b809150509250929050565b608051610d5561013d600039600081816102020152818161053301526107540152610d556000f3fe60806040526004361061009c5760003560e01c806375794a3c1161006457806375794a3c146101485780638da5cb5b1461015e578063b3f0067414610190578063d45a229a146101b0578063f2fde38b146101d0578063fe1a92fa146101f057600080fd5b806312e8e2c3146100a15780631cff85e1146100c357806322dcd13e146100fc57806350a1a26414610120578063715018a614610133575b600080fd5b3480156100ad57600080fd5b506100c16100bc36600461097f565b610224565b005b3480156100cf57600080fd5b506100e36100de36600461097f565b610231565b6040516100f394939291906109de565b60405180910390f35b34801561010857600080fd5b5061011260035481565b6040519081526020016100f3565b6100c161012e36600461097f565b6102ef565b34801561013f57600080fd5b506100c161063c565b34801561015457600080fd5b5061011260045481565b34801561016a57600080fd5b506001546001600160a01b03165b6040516001600160a01b0390911681526020016100f3565b34801561019c57600080fd5b50600254610178906001600160a01b031681565b3480156101bc57600080fd5b506101126101cb366004610a43565b610650565b3480156101dc57600080fd5b506100c16101eb366004610b10565b610804565b3480156101fc57600080fd5b506101787f000000000000000000000000000000000000000000000000000000000000000081565b61022c61087a565b600355565b6005602052600090815260409020805460018201546002830180546001600160a01b0390931693919261026390610b34565b80601f016020809104026020016040519081016040528092919081815260200182805461028f90610b34565b80156102dc5780601f106102b1576101008083540402835291602001916102dc565b820191906000526020600020905b8154815290600101906020018083116102bf57829003601f168201915b5050506003909301549192505060ff1684565b6102f76108d4565b6000818152600560205260409020600381015460ff166103565760405162461bcd60e51b815260206004820152601560248201527444617461736574206e6f7420617661696c61626c6560581b60448201526064015b60405180910390fd5b80600101543410156103a15760405162461bcd60e51b8152602060048201526014602482015273125b9cdd59999a58da595b9d081c185e5b595b9d60621b604482015260640161034d565b600061271060035483600101546103b89190610b84565b6103c29190610ba1565b905060008183600101546103d69190610bc3565b6002546040519192506000916001600160a01b039091169084908381818185875af1925050503d8060008114610428576040519150601f19603f3d011682016040523d82523d6000602084013e61042d565b606091505b505090508061047e5760405162461bcd60e51b815260206004820152601b60248201527f4661696c656420746f2073656e6420706c6174666f726d206665650000000000604482015260640161034d565b83546040516000916001600160a01b03169084908381818185875af1925050503d80600081146104ca576040519150601f19603f3d011682016040523d82523d6000602084013e6104cf565b606091505b50509050806105175760405162461bcd60e51b81526020600482015260146024820152732330b4b632b2103a37903830bc9039b2b63632b960611b604482015260640161034d565b6040516317e402a960e31b8152336004820152602481018790527f00000000000000000000000000000000000000000000000000000000000000006001600160a01b03169063bf20154890604401600060405180830381600087803b15801561057f57600080fd5b505af1158015610593573d6000803e3d6000fd5b50505050336001600160a01b0316867fcdaad5c4c9467eac42212dcf4afc1756f83263633b8774d5730c13d41ad3c47d87600101546040516105d791815260200190565b60405180910390a3846001015434111561062a57600185015433906108fc906106009034610bc3565b6040518115909202916000818181858888f19350505050158015610628573d6000803e3d6000fd5b505b50505050506106396001600055565b50565b61064461087a565b61064e600061092d565b565b600061065a61087a565b6000831161069e5760405162461bcd60e51b815260206004820152601160248201527005072696365206d757374206265203e203607c1b604482015260640161034d565b60048054600091826106af83610bd6565b90915550604080516080810182526001600160a01b03888116825260208083018981528385018981526001606086018190526000888152600590945295909220845181546001600160a01b0319169416939093178355519382019390935591519293509160028201906107229082610c3e565b50606091909101516003909101805460ff1916911515919091179055604051631965463b60e31b8152600481018290527f00000000000000000000000000000000000000000000000000000000000000006001600160a01b03169063cb2a31d890602401600060405180830381600087803b1580156107a057600080fd5b505af11580156107b4573d6000803e3d6000fd5b50505050846001600160a01b0316817fa8ee49fbc8ba88d7faf8f00db6c761499f44e9bf3b3f18f6d8bdf028d10db0e186866040516107f4929190610cfe565b60405180910390a3949350505050565b61080c61087a565b6001600160a01b0381166108715760405162461bcd60e51b815260206004820152602660248201527f4f776e61626c653a206e6577206f776e657220697320746865207a65726f206160448201526564647265737360d01b606482015260840161034d565b6106398161092d565b6001546001600160a01b0316331461064e5760405162461bcd60e51b815260206004820181905260248201527f4f776e61626c653a2063616c6c6572206973206e6f7420746865206f776e6572604482015260640161034d565b6002600054036109265760405162461bcd60e51b815260206004820152601f60248201527f5265656e7472616e637947756172643a207265656e7472616e742063616c6c00604482015260640161034d565b6002600055565b600180546001600160a01b038381166001600160a01b0319831681179093556040519116919082907f8be0079c531659141344cd1fd0a4f28419497f9722a3daafe3b4186f6b6457e090600090a35050565b60006020828403121561099157600080fd5b5035919050565b6000815180845260005b818110156109be576020818501810151868301820152016109a2565b506000602082860101526020601f19601f83011685010191505092915050565b60018060a01b0385168152836020820152608060408201526000610a056080830185610998565b9050821515606083015295945050505050565b6001600160a01b038116811461063957600080fd5b634e487b7160e01b600052604160045260246000fd5b600080600060608486031215610a5857600080fd5b8335610a6381610a18565b925060208401359150604084013567ffffffffffffffff80821115610a8757600080fd5b818601915086601f830112610a9b57600080fd5b813581811115610aad57610aad610a2d565b604051601f8201601f19908116603f01168101908382118183101715610ad557610ad5610a2d565b81604052828152896020848701011115610aee57600080fd5b8260208601602083013760006020848301015280955050505050509250925092565b600060208284031215610b2257600080fd5b8135610b2d81610a18565b9392505050565b600181811c90821680610b4857607f821691505b602082108103610b6857634e487b7160e01b600052602260045260246000fd5b50919050565b634e487b7160e01b600052601160045260246000fd5b8082028115828204841417610b9b57610b9b610b6e565b92915050565b600082610bbe57634e487b7160e01b600052601260045260246000fd5b500490565b81810381811115610b9b57610b9b610b6e565b600060018201610be857610be8610b6e565b5060010190565b601f821115610c3957600081815260208120601f850160051c81016020861015610c165750805b601f850160051c820191505b81811015610c3557828155600101610c22565b5050505b505050565b815167ffffffffffffffff811115610c5857610c58610a2d565b610c6c81610c668454610b34565b84610bef565b602080601f831160018114610ca15760008415610c895750858301515b600019600386901b1c1916600185901b178555610c35565b600085815260208120601f198616915b82811015610cd057888601518255948401946001909101908401610cb1565b5085821015610cee5787850151600019600388901b60f8161c191681555b5050505050600190811b01905550565b828152604060208201526000610d176040830184610998565b94935050505056fea2646970667358221220069ab51c7742eddf17d6745d0be050327a45866d53e2eafeac13905582fc5d0364736f6c63430008140033",
    "linkReferences": {},
    "deployedLinkReferences": {}
}